{
  "contractName": "Sequencer",
  "abi": [
    {
      "constant": false,
      "inputs": [
        {
          "name": "_toRemove",
          "type": "address"
        }
      ],
      "name": "removeAuthorized",
      "outputs": [],
      "payable": false,
      "stateMutability": "nonpayable",
      "type": "function",
      "signature": "0x485d7d94"
    },
    {
      "constant": false,
      "inputs": [],
      "name": "renounceOwnership",
      "outputs": [],
      "payable": false,
      "stateMutability": "nonpayable",
      "type": "function",
      "signature": "0x715018a6"
    },
    {
      "constant": true,
      "inputs": [],
      "name": "owner",
      "outputs": [
        {
          "name": "",
          "type": "address"
        }
      ],
      "payable": false,
      "stateMutability": "view",
      "type": "function",
      "signature": "0x8da5cb5b"
    },
    {
      "constant": true,
      "inputs": [
        {
          "name": "",
          "type": "address"
        }
      ],
      "name": "authorized",
      "outputs": [
        {
          "name": "",
          "type": "bool"
        }
      ],
      "payable": false,
      "stateMutability": "view",
      "type": "function",
      "signature": "0xb9181611"
    },
    {
      "constant": false,
      "inputs": [
        {
          "name": "_toAdd",
          "type": "address"
        }
      ],
      "name": "addAuthorized",
      "outputs": [],
      "payable": false,
      "stateMutability": "nonpayable",
      "type": "function",
      "signature": "0xcf1c316a"
    },
    {
      "constant": false,
      "inputs": [
        {
          "name": "newOwner",
          "type": "address"
        }
      ],
      "name": "transferOwnership",
      "outputs": [],
      "payable": false,
      "stateMutability": "nonpayable",
      "type": "function",
      "signature": "0xf2fde38b"
    },
    {
      "anonymous": false,
      "inputs": [
        {
          "indexed": true,
          "name": "_idbook",
          "type": "bytes16"
        },
        {
          "indexed": true,
          "name": "_digest",
          "type": "bytes32"
        },
        {
          "indexed": false,
          "name": "sequence",
          "type": "uint256"
        }
      ],
      "name": "SequenceGenerated",
      "type": "event",
      "signature": "0x84fd3b7fdd8a0d8f618b8e15d276f78e7f74638b095db1ae9d882f858aae3fda"
    },
    {
      "anonymous": false,
      "inputs": [
        {
          "indexed": true,
          "name": "previousOwner",
          "type": "address"
        }
      ],
      "name": "OwnershipRenounced",
      "type": "event",
      "signature": "0xf8df31144d9c2f0f6b59d69b8b98abd5459d07f2742c4df920b25aae33c64820"
    },
    {
      "anonymous": false,
      "inputs": [
        {
          "indexed": true,
          "name": "previousOwner",
          "type": "address"
        },
        {
          "indexed": true,
          "name": "newOwner",
          "type": "address"
        }
      ],
      "name": "OwnershipTransferred",
      "type": "event",
      "signature": "0x8be0079c531659141344cd1fd0a4f28419497f9722a3daafe3b4186f6b6457e0"
    },
    {
      "constant": false,
      "inputs": [
        {
          "name": "_idbook",
          "type": "bytes16"
        },
        {
          "name": "_signer",
          "type": "address"
        }
      ],
      "name": "addBookSigner",
      "outputs": [],
      "payable": false,
      "stateMutability": "nonpayable",
      "type": "function",
      "signature": "0x4f674164"
    },
    {
      "constant": false,
      "inputs": [
        {
          "name": "_idbook",
          "type": "bytes16"
        },
        {
          "name": "_signer",
          "type": "address"
        }
      ],
      "name": "removeBookSigner",
      "outputs": [],
      "payable": false,
      "stateMutability": "nonpayable",
      "type": "function",
      "signature": "0xe258be32"
    },
    {
      "constant": true,
      "inputs": [
        {
          "name": "_idbook",
          "type": "bytes16"
        }
      ],
      "name": "getBookSigner",
      "outputs": [
        {
          "name": "",
          "type": "address[]"
        }
      ],
      "payable": false,
      "stateMutability": "view",
      "type": "function",
      "signature": "0x852f8b74"
    },
    {
      "constant": false,
      "inputs": [
        {
          "name": "_idbook",
          "type": "bytes16"
        },
        {
          "name": "_index",
          "type": "uint256"
        }
      ],
      "name": "setBookFirstIndex",
      "outputs": [],
      "payable": false,
      "stateMutability": "nonpayable",
      "type": "function",
      "signature": "0x41f42769"
    },
    {
      "constant": true,
      "inputs": [
        {
          "name": "_idbook",
          "type": "bytes16"
        }
      ],
      "name": "getBookFirstIndex",
      "outputs": [
        {
          "name": "",
          "type": "uint256"
        }
      ],
      "payable": false,
      "stateMutability": "view",
      "type": "function",
      "signature": "0x8252b362"
    },
    {
      "constant": false,
      "inputs": [
        {
          "name": "_idbook",
          "type": "bytes16"
        },
        {
          "name": "_digest",
          "type": "bytes32"
        },
        {
          "name": "_v",
          "type": "uint8"
        },
        {
          "name": "_r",
          "type": "bytes32"
        },
        {
          "name": "_s",
          "type": "bytes32"
        }
      ],
      "name": "addDocument",
      "outputs": [
        {
          "name": "",
          "type": "uint256"
        }
      ],
      "payable": false,
      "stateMutability": "nonpayable",
      "type": "function",
      "signature": "0x135f01df"
    },
    {
      "constant": true,
      "inputs": [
        {
          "name": "_idbook",
          "type": "bytes16"
        }
      ],
      "name": "getDocumentsCount",
      "outputs": [
        {
          "name": "",
          "type": "uint256"
        }
      ],
      "payable": false,
      "stateMutability": "view",
      "type": "function",
      "signature": "0x9e163aca"
    },
    {
      "constant": true,
      "inputs": [
        {
          "name": "_idbook",
          "type": "bytes16"
        },
        {
          "name": "_seq",
          "type": "uint256"
        }
      ],
      "name": "getDocument",
      "outputs": [
        {
          "name": "sequence",
          "type": "uint256"
        },
        {
          "name": "digest",
          "type": "bytes32"
        },
        {
          "name": "timestamp",
          "type": "uint256"
        },
        {
          "name": "signer",
          "type": "address"
        }
      ],
      "payable": false,
      "stateMutability": "view",
      "type": "function",
      "signature": "0x5482d73c"
    },
    {
      "constant": true,
      "inputs": [
        {
          "name": "_idbook",
          "type": "bytes16"
        },
        {
          "name": "_digest",
          "type": "bytes32"
        }
      ],
      "name": "getDocumentSequence",
      "outputs": [
        {
          "name": "",
          "type": "uint256"
        }
      ],
      "payable": false,
      "stateMutability": "view",
      "type": "function",
      "signature": "0x3ce70aac"
    }
  ],
  "bytecode": "0x6080604052336000806101000a81548173ffffffffffffffffffffffffffffffffffffffff021916908373ffffffffffffffffffffffffffffffffffffffff160217905550611bcf806100536000396000f3fe6080604052600436106100db576000357c0100000000000000000000000000000000000000000000000000000000900463ffffffff168063135f01df146100e05780633ce70aac1461016d57806341f42769146101d9578063485d7d94146102315780634f674164146102825780635482d73c146102f0578063715018a61461039d5780638252b362146103b4578063852f8b74146104165780638da5cb5b146104b95780639e163aca14610510578063b918161114610572578063cf1c316a146105db578063e258be321461062c578063f2fde38b1461069a575b600080fd5b3480156100ec57600080fd5b50610157600480360360a081101561010357600080fd5b8101908080356fffffffffffffffffffffffffffffffff1916906020019092919080359060200190929190803560ff16906020019092919080359060200190929190803590602001909291905050506106eb565b6040518082815260200191505060405180910390f35b34801561017957600080fd5b506101c36004803603604081101561019057600080fd5b8101908080356fffffffffffffffffffffffffffffffff1916906020019092919080359060200190929190505050610cb8565b6040518082815260200191505060405180910390f35b3480156101e557600080fd5b5061022f600480360360408110156101fc57600080fd5b8101908080356fffffffffffffffffffffffffffffffff1916906020019092919080359060200190929190505050610dc5565b005b34801561023d57600080fd5b506102806004803603602081101561025457600080fd5b81019080803573ffffffffffffffffffffffffffffffffffffffff169060200190929190505050610f70565b005b34801561028e57600080fd5b506102ee600480360360408110156102a557600080fd5b8101908080356fffffffffffffffffffffffffffffffff19169060200190929190803573ffffffffffffffffffffffffffffffffffffffff16906020019092919050505061109d565b005b3480156102fc57600080fd5b506103466004803603604081101561031357600080fd5b8101908080356fffffffffffffffffffffffffffffffff191690602001909291908035906020019092919050505061122c565b604051808581526020018481526020018381526020018273ffffffffffffffffffffffffffffffffffffffff1673ffffffffffffffffffffffffffffffffffffffff16815260200194505050505060405180910390f35b3480156103a957600080fd5b506103b2611413565b005b3480156103c057600080fd5b50610400600480360360208110156103d757600080fd5b8101908080356fffffffffffffffffffffffffffffffff19169060200190929190505050611515565b6040518082815260200191505060405180910390f35b34801561042257600080fd5b506104626004803603602081101561043957600080fd5b8101908080356fffffffffffffffffffffffffffffffff1916906020019092919050505061155b565b6040518080602001828103825283818151815260200191508051906020019060200280838360005b838110156104a557808201518184015260208101905061048a565b505050509050019250505060405180910390f35b3480156104c557600080fd5b506104ce611625565b604051808273ffffffffffffffffffffffffffffffffffffffff1673ffffffffffffffffffffffffffffffffffffffff16815260200191505060405180910390f35b34801561051c57600080fd5b5061055c6004803603602081101561053357600080fd5b8101908080356fffffffffffffffffffffffffffffffff1916906020019092919050505061164a565b6040518082815260200191505060405180910390f35b34801561057e57600080fd5b506105c16004803603602081101561059557600080fd5b81019080803573ffffffffffffffffffffffffffffffffffffffff169060200190929190505050611693565b604051808215151515815260200191505060405180910390f35b3480156105e757600080fd5b5061062a600480360360208110156105fe57600080fd5b81019080803573ffffffffffffffffffffffffffffffffffffffff1690602001909291905050506116b3565b005b34801561063857600080fd5b506106986004803603604081101561064f57600080fd5b8101908080356fffffffffffffffffffffffffffffffff19169060200190929190803573ffffffffffffffffffffffffffffffffffffffff1690602001909291905050506117a4565b005b3480156106a657600080fd5b506106e9600480360360208110156106bd57600080fd5b81019080803573ffffffffffffffffffffffffffffffffffffffff169060200190929190505050611a0c565b005b6000806000905060008090505b60026000896fffffffffffffffffffffffffffffffff19166fffffffffffffffffffffffffffffffff19168152602001908152602001600020600101805490508110156107b35786600260008a6fffffffffffffffffffffffffffffffff19166fffffffffffffffffffffffffffffffff191681526020019081526020016000206001018281548110151561078957fe5b90600052602060002090600402016001015414156107a657600191505b80806001019150506106f8565b5080151515610850576040517f08c379a00000000000000000000000000000000000000000000000000000000081526004018080602001828103825260228152602001807f44696765737420616c726561647920657869737420696e207468617420626f6f81526020017f6b2e00000000000000000000000000000000000000000000000000000000000081525060400191505060405180910390fd5b6000878760405160200180836fffffffffffffffffffffffffffffffff19166fffffffffffffffffffffffffffffffff1916815260100182815260200192505050604051602081830303815290604052805190602001209050601b8660ff1610156108bc57601b860195505b600060018288888860405160008152602001604052604051808581526020018460ff1660ff1681526020018381526020018281526020019450505050506020604051602081039080840390855afa15801561091b573d6000803e3d6000fd5b505050602060405103519050600080905060008090505b600260008c6fffffffffffffffffffffffffffffffff19166fffffffffffffffffffffffffffffffff1916815260200190815260200160002060000180549050811015610a32578273ffffffffffffffffffffffffffffffffffffffff16600260008d6fffffffffffffffffffffffffffffffff19166fffffffffffffffffffffffffffffffff19168152602001908152602001600020600001828154811015156109d957fe5b9060005260206000200160009054906101000a900473ffffffffffffffffffffffffffffffffffffffff1673ffffffffffffffffffffffffffffffffffffffff161415610a2557600191505b8080600101915050610932565b50801515610aa8576040517f08c379a000000000000000000000000000000000000000000000000000000000815260040180806020018281038252601f8152602001807f4e6f20617574686f72697a6564207369676e61747572657320666f756e642e0081525060200191505060405180910390fd5b610ab0611b61565b600260008c6fffffffffffffffffffffffffffffffff19166fffffffffffffffffffffffffffffffff1916815260200190815260200160002060020154600260008d6fffffffffffffffffffffffffffffffff19166fffffffffffffffffffffffffffffffff191681526020019081526020016000206001018054905001816000018181525050898160200181815250504281604001818152505082816060019073ffffffffffffffffffffffffffffffffffffffff16908173ffffffffffffffffffffffffffffffffffffffff1681525050600260008c6fffffffffffffffffffffffffffffffff19166fffffffffffffffffffffffffffffffff19168152602001908152602001600020600101819080600181540180825580915050906001820390600052602060002090600402016000909192909190915060008201518160000155602082015181600101556040820151816002015560608201518160030160006101000a81548173ffffffffffffffffffffffffffffffffffffffff021916908373ffffffffffffffffffffffffffffffffffffffff160217905550505050898b6fffffffffffffffffffffffffffffffff19167f84fd3b7fdd8a0d8f618b8e15d276f78e7f74638b095db1ae9d882f858aae3fda83600001516040518082815260200191505060405180910390a380600001519550505050505095945050505050565b600080600090505b60026000856fffffffffffffffffffffffffffffffff19166fffffffffffffffffffffffffffffffff1916815260200190815260200160002060010180549050811015610dbd578260026000866fffffffffffffffffffffffffffffffff19166fffffffffffffffffffffffffffffffff1916815260200190815260200160002060010182815481101515610d5157fe5b9060005260206000209060040201600101541415610db05760026000856fffffffffffffffffffffffffffffffff19166fffffffffffffffffffffffffffffffff19168152602001908152602001600020600201548101915050610dbf565b8080600101915050610cc0565b505b92915050565b600160003373ffffffffffffffffffffffffffffffffffffffff1673ffffffffffffffffffffffffffffffffffffffff16815260200190815260200160002060009054906101000a900460ff1680610e6957503373ffffffffffffffffffffffffffffffffffffffff166000809054906101000a900473ffffffffffffffffffffffffffffffffffffffff1673ffffffffffffffffffffffffffffffffffffffff16145b1515610e7457600080fd5b600060026000846fffffffffffffffffffffffffffffffff19166fffffffffffffffffffffffffffffffff1916815260200190815260200160002060010180549050141515610f2b576040517f08c379a00000000000000000000000000000000000000000000000000000000081526004018080602001828103825260148152602001807f426f6f6b20616c726561647920696e207573652e00000000000000000000000081525060200191505060405180910390fd5b8060026000846fffffffffffffffffffffffffffffffff19166fffffffffffffffffffffffffffffffff19168152602001908152602001600020600201819055505050565b6000809054906101000a900473ffffffffffffffffffffffffffffffffffffffff1673ffffffffffffffffffffffffffffffffffffffff163373ffffffffffffffffffffffffffffffffffffffff16141515610fcb57600080fd5b600073ffffffffffffffffffffffffffffffffffffffff168173ffffffffffffffffffffffffffffffffffffffff161415151561100757600080fd5b3373ffffffffffffffffffffffffffffffffffffffff168173ffffffffffffffffffffffffffffffffffffffff161415151561104257600080fd5b6000600160008373ffffffffffffffffffffffffffffffffffffffff1673ffffffffffffffffffffffffffffffffffffffff16815260200190815260200160002060006101000a81548160ff02191690831515021790555050565b600160003373ffffffffffffffffffffffffffffffffffffffff1673ffffffffffffffffffffffffffffffffffffffff16815260200190815260200160002060009054906101000a900460ff168061114157503373ffffffffffffffffffffffffffffffffffffffff166000809054906101000a900473ffffffffffffffffffffffffffffffffffffffff1673ffffffffffffffffffffffffffffffffffffffff16145b151561114c57600080fd5b600073ffffffffffffffffffffffffffffffffffffffff168173ffffffffffffffffffffffffffffffffffffffff161415151561118857600080fd5b60026000836fffffffffffffffffffffffffffffffff19166fffffffffffffffffffffffffffffffff191681526020019081526020016000206000018190806001815401808255809150509060018203906000526020600020016000909192909190916101000a81548173ffffffffffffffffffffffffffffffffffffffff021916908373ffffffffffffffffffffffffffffffffffffffff160217905550505050565b600080600080600060026000886fffffffffffffffffffffffffffffffff19166fffffffffffffffffffffffffffffffff19168152602001908152602001600020600201548603905060026000886fffffffffffffffffffffffffffffffff19166fffffffffffffffffffffffffffffffff19168152602001908152602001600020600101818154811015156112be57fe5b90600052602060002090600402016000015460026000896fffffffffffffffffffffffffffffffff19166fffffffffffffffffffffffffffffffff191681526020019081526020016000206001018281548110151561131957fe5b906000526020600020906004020160010154600260008a6fffffffffffffffffffffffffffffffff19166fffffffffffffffffffffffffffffffff191681526020019081526020016000206001018381548110151561137457fe5b906000526020600020906004020160020154600260008b6fffffffffffffffffffffffffffffffff19166fffffffffffffffffffffffffffffffff19168152602001908152602001600020600101848154811015156113cf57fe5b906000526020600020906004020160030160009054906101000a900473ffffffffffffffffffffffffffffffffffffffff1694509450945094505092959194509250565b6000809054906101000a900473ffffffffffffffffffffffffffffffffffffffff1673ffffffffffffffffffffffffffffffffffffffff163373ffffffffffffffffffffffffffffffffffffffff1614151561146e57600080fd5b6000809054906101000a900473ffffffffffffffffffffffffffffffffffffffff1673ffffffffffffffffffffffffffffffffffffffff167ff8df31144d9c2f0f6b59d69b8b98abd5459d07f2742c4df920b25aae33c6482060405160405180910390a260008060006101000a81548173ffffffffffffffffffffffffffffffffffffffff021916908373ffffffffffffffffffffffffffffffffffffffff160217905550565b600060026000836fffffffffffffffffffffffffffffffff19166fffffffffffffffffffffffffffffffff19168152602001908152602001600020600201549050919050565b606060026000836fffffffffffffffffffffffffffffffff19166fffffffffffffffffffffffffffffffff1916815260200190815260200160002060000180548060200260200160405190810160405280929190818152602001828054801561161957602002820191906000526020600020905b8160009054906101000a900473ffffffffffffffffffffffffffffffffffffffff1673ffffffffffffffffffffffffffffffffffffffff16815260200190600101908083116115cf575b50505050509050919050565b6000809054906101000a900473ffffffffffffffffffffffffffffffffffffffff1681565b600060026000836fffffffffffffffffffffffffffffffff19166fffffffffffffffffffffffffffffffff19168152602001908152602001600020600101805490509050919050565b60016020528060005260406000206000915054906101000a900460ff1681565b6000809054906101000a900473ffffffffffffffffffffffffffffffffffffffff1673ffffffffffffffffffffffffffffffffffffffff163373ffffffffffffffffffffffffffffffffffffffff1614151561170e57600080fd5b600073ffffffffffffffffffffffffffffffffffffffff168173ffffffffffffffffffffffffffffffffffffffff161415151561174a57600080fd5b60018060008373ffffffffffffffffffffffffffffffffffffffff1673ffffffffffffffffffffffffffffffffffffffff16815260200190815260200160002060006101000a81548160ff02191690831515021790555050565b600160003373ffffffffffffffffffffffffffffffffffffffff1673ffffffffffffffffffffffffffffffffffffffff16815260200190815260200160002060009054906101000a900460ff168061184857503373ffffffffffffffffffffffffffffffffffffffff166000809054906101000a900473ffffffffffffffffffffffffffffffffffffffff1673ffffffffffffffffffffffffffffffffffffffff16145b151561185357600080fd5b600073ffffffffffffffffffffffffffffffffffffffff168173ffffffffffffffffffffffffffffffffffffffff161415151561188f57600080fd5b60008090505b60026000846fffffffffffffffffffffffffffffffff19166fffffffffffffffffffffffffffffffff1916815260200190815260200160002060000180549050811015611a07578173ffffffffffffffffffffffffffffffffffffffff1660026000856fffffffffffffffffffffffffffffffff19166fffffffffffffffffffffffffffffffff191681526020019081526020016000206000018281548110151561193c57fe5b9060005260206000200160009054906101000a900473ffffffffffffffffffffffffffffffffffffffff1673ffffffffffffffffffffffffffffffffffffffff1614156119fa5760026000846fffffffffffffffffffffffffffffffff19166fffffffffffffffffffffffffffffffff19168152602001908152602001600020600001818154811015156119cc57fe5b9060005260206000200160006101000a81549073ffffffffffffffffffffffffffffffffffffffff02191690555b8080600101915050611895565b505050565b6000809054906101000a900473ffffffffffffffffffffffffffffffffffffffff1673ffffffffffffffffffffffffffffffffffffffff163373ffffffffffffffffffffffffffffffffffffffff16141515611a6757600080fd5b600073ffffffffffffffffffffffffffffffffffffffff168173ffffffffffffffffffffffffffffffffffffffff1614151515611aa357600080fd5b8073ffffffffffffffffffffffffffffffffffffffff166000809054906101000a900473ffffffffffffffffffffffffffffffffffffffff1673ffffffffffffffffffffffffffffffffffffffff167f8be0079c531659141344cd1fd0a4f28419497f9722a3daafe3b4186f6b6457e060405160405180910390a3806000806101000a81548173ffffffffffffffffffffffffffffffffffffffff021916908373ffffffffffffffffffffffffffffffffffffffff16021790555050565b608060405190810160405280600081526020016000801916815260200160008152602001600073ffffffffffffffffffffffffffffffffffffffff168152509056fea165627a7a72305820647af6f7fb7fff81c156a7c6e314759e3440ecc979211a7807798980cbb11fb10029",
  "source": "pragma solidity ^0.5.0;\n\ncontract Ownable {\n  address public owner;\n\n  event OwnershipRenounced(address indexed previousOwner);\n  event OwnershipTransferred(\n    address indexed previousOwner,\n    address indexed newOwner\n  );\n\n\n  /**\n   * @dev The Ownable constructor sets the original `owner` of the contract to the sender\n   * account.\n   */\n  constructor() public {\n    owner = msg.sender;\n  }\n\n  /**\n   * @dev Throws if called by any account other than the owner.\n   */\n  modifier onlyOwner() {\n    require(msg.sender == owner);\n    _;\n  }\n\n  /**\n   * @dev Allows the current owner to transfer control of the contract to a newOwner.\n   * @param newOwner The address to transfer ownership to.\n   */\n  function transferOwnership(address newOwner) public onlyOwner {\n    require(newOwner != address(0));\n    emit OwnershipTransferred(owner, newOwner);\n    owner = newOwner;\n  }\n\n  /**\n   * @dev Allows the current owner to relinquish control of the contract.\n   */\n  function renounceOwnership() public onlyOwner {\n    emit OwnershipRenounced(owner);\n    owner = address(0);\n  }\n}\n\n\ncontract Authorizable is Ownable {\n\n    mapping(address => bool) public authorized;\n\n    modifier onlyAuthorized() {\n      require(authorized[msg.sender] || owner == msg.sender);\n      _;\n    }\n\n    function addAuthorized(address _toAdd) onlyOwner public {\n      require(_toAdd != address(0));\n      authorized[_toAdd] = true;\n    }\n\n    function removeAuthorized(address _toRemove) onlyOwner public {\n      require(_toRemove != address(0));\n      require(_toRemove != msg.sender);\n      authorized[_toRemove] = false;\n    }\n\n}\n\n\ncontract Sequencer is Authorizable {\n\n    event SequenceGenerated(\n      bytes16 indexed _idbook,\n      bytes32 indexed _digest,\n      uint sequence\n    );\n\n    struct Document {\n      uint sequence;\n      bytes32 digest;\n      uint timestamp;\n      address signer;\n    }\n\n    struct Book {\n      address[] bookSigners;\n      Document[] documents;\n      uint firstIndex;\n    }\n\n    mapping (bytes16 => Book) private book;\n\n    function addBookSigner(bytes16 _idbook,address _signer) onlyAuthorized public {\n      require(_signer != address(0));\n      book[_idbook].bookSigners.push(_signer);\n    }\n\n    function removeBookSigner(bytes16 _idbook,address _signer) onlyAuthorized public {\n      require(_signer != address(0));\n      for (uint i = 0; i < book[_idbook].bookSigners.length; i++) {\n        if (book[_idbook].bookSigners[i] == _signer) {\n          delete book[_idbook].bookSigners[i];\n        }\n      }\n    }\n\n    function getBookSigner(bytes16 _idbook) view public returns (address[] memory) {\n      return (book[_idbook].bookSigners);\n    }\n\n    function setBookFirstIndex(bytes16 _idbook, uint _index) onlyAuthorized public {\n      require(book[_idbook].documents.length == 0, \"Book already in use.\");\n      book[_idbook].firstIndex=_index;\n    }\n\n    function getBookFirstIndex(bytes16 _idbook) view public returns (uint) {\n      return (book[_idbook].firstIndex);\n    }\n\n    function addDocument(bytes16 _idbook,bytes32 _digest, uint8 _v,bytes32 _r,bytes32 _s) public returns (uint) {\n      bool isDuplicated=false;\n\n      for (uint i = 0; i < book[_idbook].documents.length; i++) {\n        if (book[_idbook].documents[i].digest==_digest) {\n          isDuplicated=true;\n        }\n      }\n\n      require (!isDuplicated, \"Digest already exist in that book.\");\n\n      bytes32 messageHash = keccak256(abi.encodePacked(_idbook, _digest));\n\n      if (_v < 27) {\n         _v += 27;\n      }\n      \n      address recovered=ecrecover(messageHash, _v, _r, _s);\n\n      bool isBookSigner=false;\n\n      for (uint j = 0; j < book[_idbook].bookSigners.length; j++) {\n        if (book[_idbook].bookSigners[j]==recovered) {\n          isBookSigner=true;\n        }\n      }\n\n      require (isBookSigner,\"No authorized signatures found.\");\n\n      Document memory document;\n      document.sequence = book[_idbook].documents.length + book[_idbook].firstIndex;\n      document.digest = _digest;\n      document.timestamp = block.timestamp;\n      document.signer = recovered;\n\n      book[_idbook].documents.push(document);\n\n      emit SequenceGenerated(_idbook, _digest, document.sequence);\n\n      return (document.sequence);\n    }\n\n    function getDocumentsCount(bytes16 _idbook)  view public returns (uint) {\n        return (book[_idbook].documents.length);\n    }\n\n    function getDocument(bytes16 _idbook, uint _seq) view public returns (uint sequence, bytes32 digest, uint timestamp, address signer) {\n      uint index = _seq - book[_idbook].firstIndex;\n      return (\n        book[_idbook].documents[index].sequence,\n        book[_idbook].documents[index].digest,\n        book[_idbook].documents[index].timestamp,\n        book[_idbook].documents[index].signer\n      );\n    }\n\n    function getDocumentSequence(bytes16 _idbook, bytes32 _digest) view public returns (uint) {\n      for (uint i = 0; i < book[_idbook].documents.length; i++) {\n        if (book[_idbook].documents[i].digest==_digest) {\n          return (i + book[_idbook].firstIndex);\n        }\n      }\n    }\n\n}",
  "sourcePath": "/Users/nacho/projects/signatura/sequencer/contracts/Sequencer.sol",
  "compiler": {
    "name": "solc",
    "version": "0.5.0+commit.1d4f565a.Emscripten.clang"
  },
  "schemaVersion": "3.0.2",
  "updatedAt": "2019-03-12T18:01:30.876Z",
  "devdoc": {
    "methods": {
      "renounceOwnership()": {
        "details": "Allows the current owner to relinquish control of the contract."
      },
      "transferOwnership(address)": {
        "details": "Allows the current owner to transfer control of the contract to a newOwner.",
        "params": {
          "newOwner": "The address to transfer ownership to."
        }
      }
    }
  },
  "userdoc": {
    "methods": {}
  }
}